:100000000C945D000C945B030C9434030C948500F9
:100010000C9485000C9485000C9485000C9485004C
:100020000C9485000C9485000C9485000C9485003C
:100030000C9485000C9485000C9485000C9485002C
:100040000C94EA020C9485000C9485000C948500B5
:100050000C9485000C9485000C9485000C9485000C
:100060000C9485000C9485000000000024002700FB
:100070002A0000000000250028002B0004040404CE
:100080000404040402020202020203030303030342
:10009000010204081020408001020408102001021F
:1000A00004081020000000080002010000030407FB
:1000B0000000000000000000500611241FBECFEF1A
:1000C000D8E0DEBFCDBF11E0A0E0B1E0EAE6F0E1AC
:1000D00002C005900D92A637B107D9F721E0A6E737
:1000E000B1E001C01D92AB3BB207E1F710E0CDE5F6
:1000F000D0E004C02197FE010E940807CC35D1074B
:10010000C9F70E9482030C9433080C94000090E01D
:10011000FC01EC55FF4F2491FC01E057FF4F349157
:10012000FC01E458FF4FE491EE23C9F0222339F09B
:10013000233001F1A8F4213019F1223029F1F0E047
:10014000EE0FFF1FEE58FF4FA591B4918FB7F894B3
:10015000EC91611126C030953E233C938FBF0895EA
:100160002730A9F02830C9F0243049F78091800069
:100170008F7D03C0809180008F7780938000DFCFD8
:1001800084B58F7784BDDBCF84B58F7DFBCF809125
:10019000B0008F778093B000D2CF8091B0008F7D78
:1001A000F9CF3E2BDACFCF93DF9390E0FC01E057FD
:1001B000FF4F249184589F4FFC0184918823D1F0F4
:1001C00090E0880F991FFC01E859FF4FA591B49169
:1001D000FC01EE58FF4FC591D49161110EC09FB73D
:1001E000F8948C91E22FE0958E238C932881E22362
:1001F000E8839FBFDF91CF9108958FB7F894EC917A
:10020000E22BEC938FBFF6CF8E50806480937C00FE
:1002100080917A00806480937A0080917A0086FDD4
:10022000FCCF8091780090917900089582309105FB
:1002300038F0880F991F880F991F05970197F1F7DC
:10024000089580E197E290930501809304018EE088
:100250000E940401892B31F080E29EE49093050115
:10026000809304018FE00E940401892B31F080E328
:1002700095E79093050180930401089508950F93E5
:100280001F93CF93DF93EC010DA988E0089F8001B5
:1002900011240150110988F0EEA9FFA9E00FF11F08
:1002A00060818DA50E94870060E08EA50E94870076
:1002B00061E08EA50E948700ECCF60E08FA50E94D0
:1002C000870061E08FA5DF91CF911F910F910C9472
:1002D0008700CF93DF93EC01E62F6B8189A99AA960
:1002E000E80FF92FF11D808198A9911117C0EEA98F
:1002F000FFA9E80FF11D608380E09A8D891788F4CB
:100300009D81EBA9FCA9E80FF11DE0812EA93FA971
:10031000E20FF32FF11D90838F5FEFCF0E948700D4
:10032000EBCFCE01DF91CF910C943F010F931F9340
:10033000CF93DF93EC019A81062F10E0E9A9FAA987
:10034000E00FF11F808128A9211127C0EEA9FFA984
:10035000E80FF11D908380E00C0F1D1FF8017C96C3
:100360009A8D8917F0F4208130E0482F50E0082E54
:1003700002C0359527950A94E2F720FF0CC09C81B6
:10038000ABA9BCA9A40FB51FAC912EA93FA9A20F80
:10039000B32FB11D9C938F5FE3CF692F0E9487001D
:1003A000DACFCE01DF91CF911F910F910C943F01D5
:1003B0000F931F93CF93DF93EC01062F10E0898DED
:1003C000181798F46B81E9A9FAA9E10FF11D808152
:1003D00098A9911107C0EEA9FFA9E80FF11D60834C
:1003E0001F5FEDCF0E948700FBCF8D81EBA9FCA999
:1003F000E00FF11DE0812EA93FA9E20FF32FF11DBF
:100400008083CE01DF91CF911F910F910C943F011A
:10041000EF92FF921F93CF93DF93EC018C81EBA9B6
:10042000FCA9E60FF11DE0812EA93FA9E20FF32FF1
:10043000F11D808381E090E07C0102C0EE0CFF1C86
:100440006A95E2F710E0898D1817F0F4212F30E05B
:10045000FE01E20FF31F848D90E08E219F21892BF6
:1004600071F06A81E9A9FAA9E20FF31F808198A9C6
:10047000911107C0EEA9FFA9E80FF11D60831F5F6E
:10048000E2CF0E948700FBCFCE01DF91CF911F9179
:10049000FF90EF900C943F010F931F93CF93DF9346
:1004A000EC01062F10E08A8DFE01181740F4E10FD1
:1004B000F11D6D8181890E9487001F5FF4CFE00FDD
:1004C000F11D6B818185DF91CF911F910F910C946C
:1004D0008700EF92FF920F931F93CF937C018C01C3
:1004E000060F111DDC0112966C91F80181850E94A6
:1004F0008700C0E0045E1F4FD7015A968C91C81741
:10050000B8F4EC2FF0E0D8018C9190E00C2E02C0F2
:10051000959587950A94E2F780FF08C0EE0DFF1DC0
:10052000D70114966C9181890E948700CF5FE4CF38
:10053000CF911F910F91FF90EF9008950F931F930C
:10054000CF93DF93EC01062F10E0898DFE01181781
:1005500040F4E10FF11D6B8181850E9487001F5FD0
:10056000F4CFE00FF11D6D818189DF91CF911F9153
:100570000F910C948700EF92FF921F93CF93DF931C
:10058000EC01162FFC01E60FF11D6C8181890E94A0
:10059000870081E090E07C0102C0EE0CFF1C1A9500
:1005A000E2F710E0898D181778F4FE01E10FF11DD4
:1005B000848D90E08E219F21892B21F06A81818595
:1005C0000E9487001F5FEECFDF91CF911F91FF90B8
:1005D000EF9008951F920F920FB60F9211242F9350
:1005E0003F938F939F93AF93BF938091B30190916B
:1005F000B401A091B501B091B6013091B20123E0F0
:10060000230F2D3758F50196A11DB11D2093B2017E
:100610008093B3019093B401A093B501B093B60158
:100620008091AE019091AF01A091B001B091B10164
:100630000196A11DB11D8093AE019093AF01A093CF
:10064000B001B093B101BF91AF919F918F913F9154
:100650002F910F900FBE0F901F90189526E8230F33
:100660000296A11DB11DD2CF1F920F920FB60F920D
:1006700011242F933F934F935F936F937F938F93A7
:100680009F93AF93BF93EF93FF93E0910201F0919B
:1006900003010995FF91EF91BF91AF919F918F91C8
:1006A0007F916F915F914F913F912F910F900FBE6E
:1006B0000F901F9018951F920F920FB60F92112452
:1006C0002F933F934F935F936F937F938F939F935A
:1006D000AF93BF93EF93FF93E0910001F09101017D
:1006E0000995FF91EF91BF91AF919F918F917F916C
:1006F0006F915F914F913F912F910F900FBE0F908F
:100700001F901895CF93DF93CDB7DEB766970FB6DE
:10071000F894DEBF0FBECDBF789484B5826084BDEF
:1007200084B5816084BD85B5826085BD85B58160F5
:1007300085BD80916E00816080936E001092810073
:10074000809181008260809381008091810081602E
:1007500080938100809180008160809380008091EF
:10076000B10084608093B1008091B000816080937B
:10077000B00080917A00846080937A0080917A0042
:10078000826080937A0080917A00816080937A0001
:1007900080917A00806880937A001092C10060E0B6
:1007A00082E00E94D30060E08EE00E94D30060E00F
:1007B0008FE00E94D30081E291E090930101809349
:1007C0000001809169008C7F816080936900E89AC4
:1007D00080910C0190910D01A0910E01B0910F013B
:1007E000898B9A8BAB8BBC8B88E0E0E1F1E0DE017A
:1007F000199601900D928A95E1F7CE01419690935A
:10080000A8018093A70108979093AA018093A9015A
:100810001091A30119831A831B831C831D831E83DC
:100820001F8318878091A601882399F0F12CE12C71
:10083000E091A701F091A801EE0DFF1D61E080811C
:100840000E94D3002FEFE21AF20A34E0E316F1041B
:1008500079F710927C0181E080937D0180937E0185
:1008600094E090938F0197E090939001109278011B
:1008700080937A018093790110927B01FE01319679
:10088000A7E8B1E0CE0108965F0121912D93E8170A
:10089000F907D9F710937F0110938001109381011C
:1008A0001093820110E080918F01181798F4812F26
:1008B00090E0AC014A585E4F7A0161E0FA0181850F
:1008C0000E94D30060917901F70181850E94870021
:1008D0001F5FE9CF10E080919001181750F09091C0
:1008E0008F01E2E9F1E080E09817B1F011928F5F9B
:1008F000FBCF812F90E09C012A583E4F790161E0A7
:10090000F90181890E94D30060917B01F7018189FF
:100910000E9487001F5FDFCF60E086E791E00E94C2
:10092000D80160E086E791E00E94690184E893E0E5
:1009300090939F0180939E011092A1011092A001BB
:100940001092A2018091040190910501019790936A
:10095000050180930401809104019091050118160E
:10096000190624F0109205011092040180910401EF
:100970009091050164E670E00E94E0066B01770F3C
:10098000EE08FF0880908F01082D10E0C801880F45
:10099000991F880F991FFC01E35BFE4F4081518135
:1009A00062817381C416D506E606F70614F1F501D7
:1009B0008E2F8A19881508F470C002501109A6E715
:1009C000B1E0950190E080E0881508F084C0F9015D
:1009D00041919F01E42FF0E0EC5DFE4F40818017D4
:1009E000910709F476C05C964C935C97019611963A
:1009F000EBCF875B9E4FFC0180819181A281B38107
:100A000021E030E040E050E0281B390B4A0B5B0B43
:100A1000DA01C901C816D906EA06FB0644F2912C90
:100A2000F7FE0CC045E24983F094E094D094C09462
:100A3000C11CD11CE11CF11C99249394292C312C4C
:100A4000C80182199309880F991F880F991FFC010B
:100A5000E35BFE4FFE8BED8B2A0C3B1C981400F5DC
:100A6000ED89FE897290629052904290FE8BED8BE0
:100A7000C701B601A30192010E948506F1012193ED
:100A80001F01A22FB0E0A30192010E94A406C61A82
:100A9000D70AE80AF90A9394E1CF35E2319388CF77
:100AA00080917E01811189CF980122503109E82F70
:100AB000F0E0E217F3070CF080CFEA0DFB1D908108
:100AC000911104C044E240838F5FF1CF9A30E0F788
:100AD00074CF406888CF80917D0181119FC03FB75E
:100AE000F8948091AE019091AF01A091B001B091C6
:100AF000B10126B5A89B05C02F3F19F00196A11D95
:100B0000B11D3FBFBA2FA92F982F8827820F911DA3
:100B1000A11DB11D42E0880F991FAA1FBB1F4A9556
:100B2000D1F72091A20140919A0150919B016091CF
:100B30009C0170919D016C017D01C41AD50AE60AE1
:100B4000F70A4091A0015091A101211104C04091E8
:100B50009E0150919F01052E000C660B770BC41669
:100B6000D506E606F7068CF180939A0190939B01D7
:100B7000A0939C01B0939D016091910180917C01B3
:100B800081112BC02223A1F01092A201809191012A
:100B90008F5F8093910190919001891710F01092CE
:100BA00091016091910186E791E00E9408020DC0D9
:100BB00086E791E00E94D8018091A0019091A10167
:100BC000892B21F3F1E0F093A20120E030E0232B08
:100BD00009F4B8CE0E940000B5CE2223A1F01092F5
:100BE000A201809191018F5F8093910190918F017B
:100BF000891710F0109291016091910186E791E0C0
:100C00000E949601E2CF86E791E00E9469018091FF
:100C1000A0019091A101892B21F3D4CF80917C0177
:100C200010E081111EC080919001181770F6612F9D
:100C300086E791E00E94080280919E0190919F01B9
:100C40000E941601612F86E791E00E94D8018091F1
:100C5000A0019091A101009711F00E9416011F5F61
:100C6000E2CF80918F01181708F0AFCF612F86E790
:100C700091E00E94960180919E0190919F010E94B7
:100C80001601612F86E791E00E9469018091A00121
:100C90009091A101009711F00E9416011F5FE1CF12
:100CA000CF93DF93C6E7D1E080ED97E099A788A7BF
:100CB0001BA61AA61CA6198E1B8E1CA21DA21EA264
:100CC0001FA21E821F828CE191E09983888385E0B8
:100CD0008DA783E08EA784E08FA761E085E00E9466
:100CE000D30061E08EA50E94D30061E08FA50E9431
:100CF000D30080E190E00E940E079FAB8EAB82E0B4
:100D00008DAB18AADF91CF910895052E97FB1EF4A5
:100D100000940E949C0657FD07D00E94AF0607FC76
:100D200003D04EF40C949C06509540953095219537
:100D30003F4F4F4F5F4F0895909580957095619507
:100D40007F4F8F4F9F4F08950E94D106A59F900D12
:100D5000B49F900DA49F800D911D11240895A1E2D0
:100D60001A2EAA1BBB1BFD010DC0AA1FBB1FEE1F25
:100D7000FF1FA217B307E407F50720F0A21BB30B70
:100D8000E40BF50B661F771F881F991F1A9469F7EC
:100D900060957095809590959B01AC01BD01CF0148
:100DA0000895A29FB001B39FC001A39F700D811D44
:100DB0001124911DB29F700D811D1124911D089564
:100DC00097FB072E16F4009407D077FD09D00E94F8
:100DD000F40607FC05D03EF4909581959F4F089549
:100DE000709561957F4F0895AA1BBB1B51E107C009
:100DF000AA1FBB1FA617B70710F0A61BB70B881FAB
:100E0000991F5A95A9F780959095BC01CD01089539
:100E1000EE0FFF1F0590F491E02D09940F931F939F
:100E2000CF93DF938230910510F482E090E0E0915F
:100E3000B901F091BA0130E020E0B0E0A0E03097D5
:100E400099F42115310509F44AC0281B390B2430C7
:100E50003105D8F58A819B816115710589F1FB0106
:100E600093838283FE0111C04081518102811381ED
:100E700048175907E0F04817590799F4109761F09F
:100E800012960C93129713961C933296CF01DF9112
:100E9000CF911F910F9108950093B9011093BA015A
:100EA000F4CF2115310551F04217530738F0A9014D
:100EB000DB019A01BD01DF01F801C1CFEF01F9CFDC
:100EC0009093BA018093B901CDCFFE01E20FF31FD9
:100ED000819391932250310939832883D7CF209170
:100EE000B7013091B801232B41F4209108013091D2
:100EF00009013093B8012093B70120910601309188
:100F000007012115310541F42DB73EB740910A0183
:100F100050910B01241B350BE091B701F091B80102
:100F2000E217F307A0F42E1B3F0B2817390778F0C0
:100F3000AC014E5F5F4F2417350748F04E0F5F1F1F
:100F40005093B8014093B701819391939FCFF0E004
:100F5000E0E09CCFCF93DF930097E9F0FC0132975C
:100F600013821282A091B901B091BA01ED0130E073
:100F700020E01097A1F420813181820F931F2091EE
:100F8000B7013091B8012817390709F061C0F09313
:100F9000B801E093B701DF91CF910895EA01CE1730
:100FA000DF07E8F54A815B819E0141155105B1F7E4
:100FB000E901FB83EA8349915991C40FD51FEC17CE
:100FC000FD0761F4808191810296840F951FE901EC
:100FD00099838883828193819B838A83F0E0E0E018
:100FE00012968D919C9113970097B9F52D913C9194
:100FF0001197CD010296820F931F2091B701309176
:10100000B8012817390739F6309751F51092BA010F
:101010001092B901B093B801A093B701BCCFD383AC
:10102000C28340815181840F951FC817D90761F48D
:101030004E5F5F4F88819981480F591F51834083CC
:101040008A819B81938382832115310509F0B0CF7A
:10105000F093BA01E093B9019ECFFD01DC01C0CF4E
:0A10600013821282D7CFF894FFCF5D
:10106A003E013E0110270000BB0180000104050E6D
:10107A0002060C0A09030D0B000000000802D80141
:10108A00960169013F065B4F666D7D077F6F777C2E
:10109A00395E79713D76300E763800543F73675069
:1010AA006D783E3E00766E5B00408063080100006A
:1010BA00000A00000064000000E803000010270096
:1010CA0000A086010040420F008096980000E1F5DA
:0610DA000500CA9A3B006C
:00000001FF
